:100000000C9434000C943E000C943E000C943E0082
:100010000C943E000C943E000C943E000C943E0068
:100020000C943E000C943E000C943E000C943E0058
:100030000C943E000C9440000C943E000C943E0046
:100040000C943E000C943E000C943E000C943E0038
:100050000C943E000C943E000C943E000C943E0028
:100060000C943E000C943E0011241FBECFEFD8E04C
:10007000DEBFCDBF0E9453000C9467000C940000BB
:100080008F938FB78F939F9385B190E2892785B91E
:1000900087EF92EC90938500809384009F918F91DD
:1000A0008FBF8F911895259A2D9A87EF92EC909398
:1000B0008500809384001092800080916F008160A1
:1000C00080936F0085E0809381007894FFCFF8944F
:0200D000FFCF60
:00000001FF
